{
  "contractName": "AccountRegistryImpl",
  "abi": [
    {
      "constant": false,
      "inputs": [
        {
          "name": "name",
          "type": "string"
        },
        {
          "name": "ipfsHash",
          "type": "string"
        }
      ],
      "name": "addMyAccount",
      "outputs": [],
      "payable": false,
      "stateMutability": "nonpayable",
      "type": "function"
    },
    {
      "constant": true,
      "inputs": [
        {
          "name": "",
          "type": "address"
        }
      ],
      "name": "accounts",
      "outputs": [
        {
          "name": "name",
          "type": "string"
        },
        {
          "name": "ipfsHash",
          "type": "string"
        },
        {
          "name": "createdAt",
          "type": "uint256"
        }
      ],
      "payable": false,
      "stateMutability": "view",
      "type": "function"
    },
    {
      "constant": true,
      "inputs": [],
      "name": "getMyAccountIpfsHash",
      "outputs": [
        {
          "name": "",
          "type": "string"
        }
      ],
      "payable": false,
      "stateMutability": "view",
      "type": "function"
    }
  ],
  "bytecode": "0x6060604052341561000f57600080fd5b61058d8061001e6000396000f300606060405260043610610057576000357c0100000000000000000000000000000000000000000000000000000000900463ffffffff168063454d5db81461005c5780635e5c06e2146100fc5780635fe02c6d1461025b575b600080fd5b341561006757600080fd5b6100fa600480803590602001908201803590602001908080601f0160208091040260200160405190810160405280939291908181526020018383808284378201915050505050509190803590602001908201803590602001908080601f016020809104026020016040519081016040528093929190818152602001838380828437820191505050505050919050506102e9565b005b341561010757600080fd5b610133600480803573ffffffffffffffffffffffffffffffffffffffff16906020019091905050610399565b6040518080602001806020018481526020018381038352868181546001816001161561010002031660029004815260200191508054600181600116156101000203166002900480156101c65780601f1061019b576101008083540402835291602001916101c6565b820191906000526020600020905b8154815290600101906020018083116101a957829003601f168201915b50508381038252858181546001816001161561010002031660029004815260200191508054600181600116156101000203166002900480156102495780601f1061021e57610100808354040283529160200191610249565b820191906000526020600020905b81548152906001019060200180831161022c57829003601f168201915b50509550505050505060405180910390f35b341561026657600080fd5b61026e6103c1565b6040518080602001828103825283818151815260200191508051906020019080838360005b838110156102ae578082015181840152602081019050610293565b50505050905090810190601f1680156102db5780820380516001836020036101000a031916815260200191505b509250505060405180910390f35b816000803373ffffffffffffffffffffffffffffffffffffffff1673ffffffffffffffffffffffffffffffffffffffff168152602001908152602001600020600001908051906020019061033e9291906104a8565b50806000803373ffffffffffffffffffffffffffffffffffffffff1673ffffffffffffffffffffffffffffffffffffffff16815260200190815260200160002060010190805190602001906103949291906104a8565b505050565b6000602052806000526040600020600091509050806000019080600101908060020154905083565b6103c9610528565b6000803373ffffffffffffffffffffffffffffffffffffffff1673ffffffffffffffffffffffffffffffffffffffff1681526020019081526020016000206001018054600181600116156101000203166002900480601f01602080910402602001604051908101604052809291908181526020018280546001816001161561010002031660029004801561049e5780601f106104735761010080835404028352916020019161049e565b820191906000526020600020905b81548152906001019060200180831161048157829003601f168201915b5050505050905090565b828054600181600116156101000203166002900490600052602060002090601f016020900481019282601f106104e957805160ff1916838001178555610517565b82800160010185558215610517579182015b828111156105165782518255916020019190600101906104fb565b5b509050610524919061053c565b5090565b602060405190810160405280600081525090565b61055e91905b8082111561055a576000816000905550600101610542565b5090565b905600a165627a7a72305820f343957350fa80799c15c35de49b15fd14c708ebefaa4f4f976ec105799068910029",
  "source": "pragma solidity ^0.4.18;\n\nimport \"./AccountRegistry.sol\";\n\ncontract AccountRegistryImpl is AccountRegistry {\n  \n  struct Account {\n    string name;\n    string ipfsHash;\n    uint createdAt;\n  }\n  \n  mapping(address => Account) public accounts;\n  \n  function addMyAccount(string name, string ipfsHash) public {\n    accounts[msg.sender].name = name;\n    accounts[msg.sender].ipfsHash = ipfsHash;\n  }\n  \n  function getMyAccountIpfsHash() public view returns (string) {\n    return accounts[msg.sender].ipfsHash;\n  }\n\n  \n  \n}",
  "sourcePath": "/Users/luffy/Development/Workspace/ping-contracts/contracts/registries/AccountRegistryImpl.sol",
  "compiler": {
    "name": "solc",
    "version": "0.4.18+commit.9cf6e910.Emscripten.clang"
  },
  "schemaVersion": "1.0.1",
  "updatedAt": "2017-12-22T07:10:56.973Z"
}