{
  "contractName": "AttentionFlatPriceProvider",
  "abi": [
    {
      "constant": false,
      "inputs": [
        {
          "name": "_who",
          "type": "address"
        },
        {
          "name": "_when",
          "type": "bytes"
        }
      ],
      "name": "getPrice",
      "outputs": [
        {
          "name": "",
          "type": "uint256"
        }
      ],
      "payable": false,
      "stateMutability": "nonpayable",
      "type": "function"
    },
    {
      "constant": true,
      "inputs": [
        {
          "name": "contractKey",
          "type": "string"
        }
      ],
      "name": "lookupAddress",
      "outputs": [
        {
          "name": "",
          "type": "address"
        }
      ],
      "payable": false,
      "stateMutability": "view",
      "type": "function"
    }
  ],
  "bytecode": "0x6060604052731d3b2638a7cc9f2cb3d298a3da7a90b67e5506ed6000806101000a81548173ffffffffffffffffffffffffffffffffffffffff021916908373ffffffffffffffffffffffffffffffffffffffff1602179055506105f8806100676000396000f30060606040526004361061004c576000357c0100000000000000000000000000000000000000000000000000000000900463ffffffff1680638ac06f5014610051578063c0410f7b146100e1575b600080fd5b341561005c57600080fd5b6100cb600480803573ffffffffffffffffffffffffffffffffffffffff1690602001909190803590602001908201803590602001908080601f0160208091040260200160405190810160405280939291908181526020018383808284378201915050505050509190505061017e565b6040518082815260200191505060405180910390f35b34156100ec57600080fd5b61013c600480803590602001908201803590602001908080601f016020809104026020016040519081016040528093929190818152602001838380828437820191505050505050919050506101c8565b604051808273ffffffffffffffffffffffffffffffffffffffff1673ffffffffffffffffffffffffffffffffffffffff16815260200191505060405180910390f35b6000610189836102e9565b1561019e57610197836102f4565b90506101c2565b6101a783610424565b156101bd576101b6838361042e565b90506101c2565b600080fd5b92915050565b60008060009054906101000a900473ffffffffffffffffffffffffffffffffffffffff1673ffffffffffffffffffffffffffffffffffffffff1663bf40fac1836000604051602001526040518263ffffffff167c01000000000000000000000000000000000000000000000000000000000281526004018080602001828103825283818151815260200191508051906020019080838360005b8381101561027c578082015181840152602081019050610261565b50505050905090810190601f1680156102a95780820380516001836020036101000a031916815260200191505b5092505050602060405180830381600087803b15156102c757600080fd5b6102c65a03f115156102d857600080fd5b505050604051805190509050919050565b600060019050919050565b60008061035c606060405190810160405280602a81526020017f75726e3a636f6e74726163743a617474656e74696f6e2d666c61742d7072696381526020017f652d7265676973747279000000000000000000000000000000000000000000008152506101c8565b90508073ffffffffffffffffffffffffffffffffffffffff166341976e09846000604051602001526040518263ffffffff167c0100000000000000000000000000000000000000000000000000000000028152600401808273ffffffffffffffffffffffffffffffffffffffff1673ffffffffffffffffffffffffffffffffffffffff168152602001915050602060405180830381600087803b151561040157600080fd5b6102c65a03f1151561041257600080fd5b50505060405180519050915050919050565b6000809050919050565b600080610496606060405190810160405280602c81526020017f75726e3a636f6e74726163743a617474656e74696f6e2d6d61726b65742d707281526020017f6963652d726567697374727900000000000000000000000000000000000000008152506101c8565b90508073ffffffffffffffffffffffffffffffffffffffff16638ac06f5085856000604051602001526040518363ffffffff167c0100000000000000000000000000000000000000000000000000000000028152600401808373ffffffffffffffffffffffffffffffffffffffff1673ffffffffffffffffffffffffffffffffffffffff16815260200180602001828103825283818151815260200191508051906020019080838360005b8381101561055c578082015181840152602081019050610541565b50505050905090810190601f1680156105895780820380516001836020036101000a031916815260200191505b509350505050602060405180830381600087803b15156105a857600080fd5b6102c65a03f115156105b957600080fd5b50505060405180519050915050929150505600a165627a7a72305820a28b2d42efdf0dbb063ac467930393ce94117bb92857c4e34a3484626fe5ed8a0029",
  "source": "pragma solidity ^0.4.18;\n\nimport \"./AttentionPriceProvider.sol\";\nimport \"../extensions/Proxy.sol\";\nimport \"../registries/AttentionFlatPriceRegistry.sol\";\nimport \"../registries/AttentionMarketPriceRegistry.sol\";\n\ncontract AttentionFlatPriceProvider is AttentionPriceProvider, Proxy {\n  \n  function getPrice(address _who, bytes _when) public returns (uint) {\n    if (useFlatPriceStrategy(_who)) {\n      return getFlatPrice(_who);\n    }\n    \n    if (useMarketPriceStrategy(_who)) {\n      return getMarketPrice(_who, _when);\n    }\n    \n    // Unable to find appropriate pricing strategy. This should never happen.\n    revert();\n  }\n  \n  function useFlatPriceStrategy(address _who) private pure returns (bool) {\n    // To be completed when A/B testing is implemented.\n    return true;\n  }\n  \n  function useMarketPriceStrategy(address _who) private pure returns (bool) {\n    // To be completed when A/B testing is implemented.\n    return false;\n  }\n  \n  function getFlatPrice(address _who) private view returns (uint) {\n    AttentionFlatPriceRegistry attentionPriceRegistry = AttentionFlatPriceRegistry(lookupAddress(\"urn:contract:attention-flat-price-registry\"));\n    return attentionPriceRegistry.getPrice(_who);\n  }\n  \n  function getMarketPrice(address _who, bytes _when) private view returns (uint) {\n    AttentionMarketPriceRegistry attentionPriceRegistry = AttentionMarketPriceRegistry(lookupAddress(\"urn:contract:attention-market-price-registry\"));\n    return attentionPriceRegistry.getPrice(_who, _when);\n  }\n  \n}",
  "sourcePath": "/Users/luffy/Development/Workspace/ping-contracts/contracts/providers/AttentionPriceProviderImpl.sol",
  "compiler": {
    "name": "solc",
    "version": "0.4.18+commit.9cf6e910.Emscripten.clang"
  },
  "schemaVersion": "1.0.1",
  "updatedAt": "2017-12-22T07:10:56.973Z"
}