{
  "contractName": "AttentionFlatPriceRegistryImpl",
  "abi": [
    {
      "constant": true,
      "inputs": [
        {
          "name": "_who",
          "type": "address"
        },
        {
          "name": "_when",
          "type": "bytes"
        }
      ],
      "name": "getMyPrice",
      "outputs": [
        {
          "name": "",
          "type": "uint256"
        }
      ],
      "payable": false,
      "stateMutability": "view",
      "type": "function"
    },
    {
      "constant": true,
      "inputs": [
        {
          "name": "_who",
          "type": "address"
        }
      ],
      "name": "getPrice",
      "outputs": [
        {
          "name": "",
          "type": "uint256"
        }
      ],
      "payable": false,
      "stateMutability": "view",
      "type": "function"
    },
    {
      "constant": false,
      "inputs": [
        {
          "name": "_price",
          "type": "uint256"
        }
      ],
      "name": "setMyPrice",
      "outputs": [],
      "payable": false,
      "stateMutability": "nonpayable",
      "type": "function"
    },
    {
      "constant": true,
      "inputs": [
        {
          "name": "",
          "type": "address"
        }
      ],
      "name": "accountToPriceMapping",
      "outputs": [
        {
          "name": "",
          "type": "uint256"
        }
      ],
      "payable": false,
      "stateMutability": "view",
      "type": "function"
    }
  ],
  "bytecode": "0x6060604052341561000f57600080fd5b6102758061001e6000396000f300606060405260043610610062576000357c0100000000000000000000000000000000000000000000000000000000900463ffffffff1680630b37df6f1461006757806341976e09146100905780634e4e6350146100dd578063dc89949b14610100575b600080fd5b341561007257600080fd5b61007a61014d565b6040518082815260200191505060405180910390f35b341561009b57600080fd5b6100c7600480803573ffffffffffffffffffffffffffffffffffffffff16906020019091905050610193565b6040518082815260200191505060405180910390f35b34156100e857600080fd5b6100fe60048080359060200190919050506101db565b005b341561010b57600080fd5b610137600480803573ffffffffffffffffffffffffffffffffffffffff16906020019091905050610231565b6040518082815260200191505060405180910390f35b60008060003373ffffffffffffffffffffffffffffffffffffffff1673ffffffffffffffffffffffffffffffffffffffff16815260200190815260200160002054905090565b60008060008373ffffffffffffffffffffffffffffffffffffffff1673ffffffffffffffffffffffffffffffffffffffff168152602001908152602001600020549050919050565b600081101515156101eb57600080fd5b806000803373ffffffffffffffffffffffffffffffffffffffff1673ffffffffffffffffffffffffffffffffffffffff1681526020019081526020016000208190555050565b600060205280600052604060002060009150905054815600a165627a7a72305820f493a879b7497e461df35a47839b7203ecfed3610c74ffc78e23285ed4003e790029",
  "source": "pragma solidity ^0.4.18;\n\nimport \"./AttentionFlatPriceRegistry.sol\";\n\ncontract AttentionFlatPriceRegistryImpl is AttentionFlatPriceRegistry {\n  \n  mapping(address => uint) public accountToPriceMapping;\n  \n  function getPrice(address _who) public view returns (uint) {\n    return accountToPriceMapping[_who];\n  }\n  \n  function getMyPrice() public view returns (uint) {\n    return accountToPriceMapping[msg.sender];\n  }\n  \n  function setMyPrice(uint _price) public {\n    require (_price >= 0);\n    accountToPriceMapping[msg.sender] = _price;\n  }\n  \n}",
  "sourcePath": "/Users/luffy/Development/Workspace/ping-contracts/contracts/registries/AttentionFlatPriceRegistryImpl.sol",
  "compiler": {
    "name": "solc",
    "version": "0.4.18+commit.9cf6e910.Emscripten.clang"
  },
  "schemaVersion": "1.0.1",
  "updatedAt": "2017-12-22T07:16:30.539Z"
}