{
  "contractName": "AttentionMarketRegistry",
  "abi": [
    {
      "constant": false,
      "inputs": [
        {
          "name": "_marketAddress",
          "type": "address"
        },
        {
          "name": "_ipfsHash",
          "type": "string"
        }
      ],
      "name": "registerMarket",
      "outputs": [],
      "payable": false,
      "stateMutability": "nonpayable",
      "type": "function"
    },
    {
      "constant": true,
      "inputs": [
        {
          "name": "",
          "type": "address"
        }
      ],
      "name": "marketEntryIndexes",
      "outputs": [
        {
          "name": "",
          "type": "uint256"
        }
      ],
      "payable": false,
      "stateMutability": "view",
      "type": "function"
    },
    {
      "constant": true,
      "inputs": [
        {
          "name": "accountAddress",
          "type": "address"
        }
      ],
      "name": "getMarketRegisteredAt",
      "outputs": [
        {
          "name": "",
          "type": "uint256"
        }
      ],
      "payable": false,
      "stateMutability": "view",
      "type": "function"
    },
    {
      "constant": true,
      "inputs": [
        {
          "name": "accountAddress",
          "type": "address"
        }
      ],
      "name": "getMarketAddress",
      "outputs": [
        {
          "name": "",
          "type": "address"
        }
      ],
      "payable": false,
      "stateMutability": "view",
      "type": "function"
    },
    {
      "constant": true,
      "inputs": [
        {
          "name": "",
          "type": "uint256"
        }
      ],
      "name": "marketEntries",
      "outputs": [
        {
          "name": "ownerAddress",
          "type": "address"
        },
        {
          "name": "marketAddress",
          "type": "address"
        },
        {
          "name": "ipfsHash",
          "type": "string"
        },
        {
          "name": "registeredAt",
          "type": "uint256"
        }
      ],
      "payable": false,
      "stateMutability": "view",
      "type": "function"
    },
    {
      "constant": true,
      "inputs": [
        {
          "name": "accountAddress",
          "type": "address"
        }
      ],
      "name": "getMarketIpfsHash",
      "outputs": [
        {
          "name": "",
          "type": "string"
        }
      ],
      "payable": false,
      "stateMutability": "view",
      "type": "function"
    }
  ],
  "bytecode": "0x6060604052341561000f57600080fd5b6109e68061001e6000396000f300606060405260043610610078576000357c0100000000000000000000000000000000000000000000000000000000900463ffffffff16806327ebc1fe1461007d5780634a47f3e3146100f95780638841467f14610146578063dbc4404814610193578063f14aa3fc1461020c578063f52ea27d14610332575b600080fd5b341561008857600080fd5b6100f7600480803573ffffffffffffffffffffffffffffffffffffffff1690602001909190803590602001908201803590602001908080601f016020809104026020016040519081016040528093929190818152602001838380828437820191505050505050919050506103e4565b005b341561010457600080fd5b610130600480803573ffffffffffffffffffffffffffffffffffffffff16906020019091905050610563565b6040518082815260200191505060405180910390f35b341561015157600080fd5b61017d600480803573ffffffffffffffffffffffffffffffffffffffff1690602001909190505061057b565b6040518082815260200191505060405180910390f35b341561019e57600080fd5b6101ca600480803573ffffffffffffffffffffffffffffffffffffffff169060200190919050506105e9565b604051808273ffffffffffffffffffffffffffffffffffffffff1673ffffffffffffffffffffffffffffffffffffffff16815260200191505060405180910390f35b341561021757600080fd5b61022d6004808035906020019091905050610677565b604051808573ffffffffffffffffffffffffffffffffffffffff1673ffffffffffffffffffffffffffffffffffffffff1681526020018473ffffffffffffffffffffffffffffffffffffffff1673ffffffffffffffffffffffffffffffffffffffff168152602001806020018381526020018281038252848181546001816001161561010002031660029004815260200191508054600181600116156101000203166002900480156103205780601f106102f557610100808354040283529160200191610320565b820191906000526020600020905b81548152906001019060200180831161030357829003601f168201915b50509550505050505060405180910390f35b341561033d57600080fd5b610369600480803573ffffffffffffffffffffffffffffffffffffffff169060200190919050506106f5565b6040518080602001828103825283818151815260200191508051906020019080838360005b838110156103a957808201518184015260208101905061038e565b50505050905090810190601f1680156103d65780820380516001836020036101000a031916815260200191505b509250505060405180910390f35b600080548060010182816103f89190610802565b916000526020600020906004020160006080604051908101604052803373ffffffffffffffffffffffffffffffffffffffff1681526020018673ffffffffffffffffffffffffffffffffffffffff16815260200185815260200142815250909190915060008201518160000160006101000a81548173ffffffffffffffffffffffffffffffffffffffff021916908373ffffffffffffffffffffffffffffffffffffffff16021790555060208201518160010160006101000a81548173ffffffffffffffffffffffffffffffffffffffff021916908373ffffffffffffffffffffffffffffffffffffffff1602179055506040820151816002019080519060200190610505929190610834565b5060608201518160030155505050600160008054905003600160003373ffffffffffffffffffffffffffffffffffffffff1673ffffffffffffffffffffffffffffffffffffffff168152602001908152602001600020819055505050565b60016020528060005260406000206000915090505481565b600080600160008473ffffffffffffffffffffffffffffffffffffffff1673ffffffffffffffffffffffffffffffffffffffff1681526020019081526020016000205490506000818154811015156105cf57fe5b906000526020600020906004020160030154915050919050565b600080600160008473ffffffffffffffffffffffffffffffffffffffff1673ffffffffffffffffffffffffffffffffffffffff16815260200190815260200160002054905060008181548110151561063d57fe5b906000526020600020906004020160010160009054906101000a900473ffffffffffffffffffffffffffffffffffffffff16915050919050565b60008181548110151561068657fe5b90600052602060002090600402016000915090508060000160009054906101000a900473ffffffffffffffffffffffffffffffffffffffff16908060010160009054906101000a900473ffffffffffffffffffffffffffffffffffffffff169080600201908060030154905084565b6106fd6108b4565b6000600160008473ffffffffffffffffffffffffffffffffffffffff1673ffffffffffffffffffffffffffffffffffffffff16815260200190815260200160002054905060008181548110151561075057fe5b90600052602060002090600402016002018054600181600116156101000203166002900480601f0160208091040260200160405190810160405280929190818152602001828054600181600116156101000203166002900480156107f55780601f106107ca576101008083540402835291602001916107f5565b820191906000526020600020905b8154815290600101906020018083116107d857829003601f168201915b5050505050915050919050565b81548183558181151161082f5760040281600402836000526020600020918201910161082e91906108c8565b5b505050565b828054600181600116156101000203166002900490600052602060002090601f016020900481019282601f1061087557805160ff19168380011785556108a3565b828001600101855582156108a3579182015b828111156108a2578251825591602001919060010190610887565b5b5090506108b0919061094d565b5090565b602060405190810160405280600081525090565b61094a91905b8082111561094657600080820160006101000a81549073ffffffffffffffffffffffffffffffffffffffff02191690556001820160006101000a81549073ffffffffffffffffffffffffffffffffffffffff02191690556002820160006109359190610972565b6003820160009055506004016108ce565b5090565b90565b61096f91905b8082111561096b576000816000905550600101610953565b5090565b90565b50805460018160011615610100020316600290046000825580601f1061099857506109b7565b601f0160209004906000526020600020908101906109b6919061094d565b5b505600a165627a7a72305820b449af14dc10ae7a19aec8c52693d2ad8b803b74aa98933744c14d41ac543e720029",
  "source": "pragma solidity ^0.4.18;\n\ncontract AttentionMarketRegistry {\n\n\tAttentionMarketEntry[] public marketEntries;\n\tmapping(address => uint) public marketEntryIndexes;\n\t\n\tstruct AttentionMarketEntry {\n\t\taddress ownerAddress;\n\t\taddress marketAddress;\n\t\tstring ipfsHash;\n\t\tuint registeredAt;\n\t}\n\t\n\tfunction registerMarket(address _marketAddress, string _ipfsHash) public {\n\t\tmarketEntries.push(AttentionMarketEntry(msg.sender, _marketAddress, _ipfsHash, now));\n\t\tmarketEntryIndexes[msg.sender] = marketEntries.length - 1;\n\t}\n\t\n\tfunction getMarketAddress(address accountAddress) public view returns (address) {\n\t\tuint marketEntryIndex = marketEntryIndexes[accountAddress];\n\t\treturn marketEntries[marketEntryIndex].marketAddress;\n\t}\n\t\n\tfunction getMarketIpfsHash(address accountAddress) public view returns (string) {\n\t\tuint marketEntryIndex = marketEntryIndexes[accountAddress];\n\t\treturn marketEntries[marketEntryIndex].ipfsHash;\n\t}\n\t\n\tfunction getMarketRegisteredAt(address accountAddress) public view returns (uint) {\n\t\tuint marketEntryIndex = marketEntryIndexes[accountAddress];\n\t\treturn marketEntries[marketEntryIndex].registeredAt;\n\t}\n\t\n}",
  "sourcePath": "/Users/luffy/Development/Workspace/ping-contracts/contracts/registries/AttentionMarketRegistry.sol",
  "compiler": {
    "name": "solc",
    "version": "0.4.18+commit.9cf6e910.Emscripten.clang"
  },
  "schemaVersion": "1.0.1",
  "updatedAt": "2017-12-21T02:01:29.404Z"
}