{
  "contractName": "AttentionMarket",
  "abi": [
    {
      "constant": false,
      "inputs": [
        {
          "name": "_creditBasePrice",
          "type": "uint256"
        }
      ],
      "name": "updateCreditBasePrice",
      "outputs": [],
      "payable": false,
      "stateMutability": "nonpayable",
      "type": "function"
    },
    {
      "constant": true,
      "inputs": [],
      "name": "getRemainingCredits",
      "outputs": [
        {
          "name": "",
          "type": "uint256"
        }
      ],
      "payable": false,
      "stateMutability": "view",
      "type": "function"
    },
    {
      "constant": true,
      "inputs": [],
      "name": "getOwner",
      "outputs": [
        {
          "name": "",
          "type": "address"
        }
      ],
      "payable": false,
      "stateMutability": "view",
      "type": "function"
    },
    {
      "constant": false,
      "inputs": [
        {
          "name": "_quantity",
          "type": "uint256"
        }
      ],
      "name": "purchaseCredits",
      "outputs": [],
      "payable": true,
      "stateMutability": "payable",
      "type": "function"
    },
    {
      "constant": false,
      "inputs": [
        {
          "name": "_newOwner",
          "type": "address"
        }
      ],
      "name": "transferOwnership",
      "outputs": [
        {
          "name": "",
          "type": "bool"
        }
      ],
      "payable": false,
      "stateMutability": "nonpayable",
      "type": "function"
    },
    {
      "anonymous": false,
      "inputs": [
        {
          "indexed": false,
          "name": "_purchaser",
          "type": "address"
        },
        {
          "indexed": false,
          "name": "_quantity",
          "type": "uint256"
        },
        {
          "indexed": false,
          "name": "_price",
          "type": "uint256"
        },
        {
          "indexed": false,
          "name": "_totalCost",
          "type": "uint256"
        }
      ],
      "name": "CreditPurchaseEvent",
      "type": "event"
    }
  ],
  "bytecode": "0x6060604052336000806101000a81548173ffffffffffffffffffffffffffffffffffffffff021916908373ffffffffffffffffffffffffffffffffffffffff160217905550610619806100536000396000f30060606040526004361061006d576000357c0100000000000000000000000000000000000000000000000000000000900463ffffffff16806331f04d5b146100725780637c466ec514610095578063893d20e8146100be578063bef101fb14610113578063f2fde38b1461012b575b600080fd5b341561007d57600080fd5b610093600480803590602001909190505061017c565b005b34156100a057600080fd5b6100a86101e1565b6040518082815260200191505060405180910390f35b34156100c957600080fd5b6100d1610228565b604051808273ffffffffffffffffffffffffffffffffffffffff1673ffffffffffffffffffffffffffffffffffffffff16815260200191505060405180910390f35b6101296004808035906020019091905050610251565b005b341561013657600080fd5b610162600480803573ffffffffffffffffffffffffffffffffffffffff16906020019091905050610478565b604051808215151515815260200191505060405180910390f35b6000809054906101000a900473ffffffffffffffffffffffffffffffffffffffff1673ffffffffffffffffffffffffffffffffffffffff163373ffffffffffffffffffffffffffffffffffffffff161415156101d757600080fd5b8060018190555050565b6000600460003373ffffffffffffffffffffffffffffffffffffffff1673ffffffffffffffffffffffffffffffffffffffff16815260200190815260200160002054905090565b60008060009054906101000a900473ffffffffffffffffffffffffffffffffffffffff16905090565b60008060008360015402925082341015151561026c57600080fd5b83600460003373ffffffffffffffffffffffffffffffffffffffff1673ffffffffffffffffffffffffffffffffffffffff1681526020019081526020016000206000828254019250508190555083600260008282540192505081905550600380548060010182816102dd9190610555565b9160005260206000209060050201600060a0604051908101604052803373ffffffffffffffffffffffffffffffffffffffff168152602001888152602001600154815260200187815260200142815250909190915060008201518160000160006101000a81548173ffffffffffffffffffffffffffffffffffffffff021916908373ffffffffffffffffffffffffffffffffffffffff16021790555060208201518160010155604082015181600201556060820151816003015560808201518160040155505050823411915081156103f55782340390503373ffffffffffffffffffffffffffffffffffffffff166108fc829081150290604051600060405180830381858888f1935050505015156103f457600080fd5b5b7f0d692ce0e50c6c5ec5a084af94008884a83fed4c99e77e49224a6e26c8dc7dff338560015486604051808573ffffffffffffffffffffffffffffffffffffffff1673ffffffffffffffffffffffffffffffffffffffff16815260200184815260200183815260200182815260200194505050505060405180910390a150505050565b60008060009054906101000a900473ffffffffffffffffffffffffffffffffffffffff1673ffffffffffffffffffffffffffffffffffffffff163373ffffffffffffffffffffffffffffffffffffffff161415156104d557600080fd5b600073ffffffffffffffffffffffffffffffffffffffff168273ffffffffffffffffffffffffffffffffffffffff1614151561054c57816000806101000a81548173ffffffffffffffffffffffffffffffffffffffff021916908373ffffffffffffffffffffffffffffffffffffffff1602179055505b60019050919050565b815481835581811511610582576005028160050283600052602060002091820191016105819190610587565b5b505050565b6105ea91905b808211156105e657600080820160006101000a81549073ffffffffffffffffffffffffffffffffffffffff021916905560018201600090556002820160009055600382016000905560048201600090555060050161058d565b5090565b905600a165627a7a723058205d388e29f7b3aebe0bc21142772d570faad846f8a534fb136e888b716d55ff9b0029",
  "source": "pragma solidity ^0.4.18;\n\nimport \"../extensions/Ownable.sol\";\n\ncontract AttentionMarket is Ownable {\n\t\n\tuint creditBasePrice;\n\tuint totalCreditsSold;\n\tCreditPurchase[] creditPurchases;\n\tmapping(address => uint) purchaserCredits;\n\t\n\tevent CreditPurchaseEvent(address _purchaser, uint _quantity, uint _price, uint _totalCost);\n\t\n\tstruct CreditPurchase {\n\t\taddress purchaser;\n\t\tuint quantity;\n\t\tuint price;\n\t\tuint totalCost;\n\t\tuint purchasedAt;\n\t}\n\t\n\tfunction purchaseCredits(uint _quantity) public payable {\n\t\tuint totalCost = creditBasePrice * _quantity;\t\t\n\t\trequire(msg.value >= totalCost);\n\n\t\tpurchaserCredits[msg.sender] += _quantity;\n\t\ttotalCreditsSold += _quantity;\n\t\t\n\t\tcreditPurchases.push(CreditPurchase(msg.sender, _quantity, creditBasePrice, totalCost, now));\n\t\t\n\t\tbool overpaid = msg.value > totalCost;\n\t\tif (overpaid) {\n\t\t\tuint refund = msg.value - totalCost;\n\t\t\tif (!msg.sender.send(refund)) {\n\t\t\t\trevert();\n\t\t\t}\n\t\t}\n\t\t\n\t\tCreditPurchaseEvent(msg.sender, _quantity, creditBasePrice, totalCost);\n\t}\n\t\n\tfunction getRemainingCredits() public view returns (uint) {\n\t\treturn purchaserCredits[msg.sender];\n\t}\n\t\n\tfunction updateCreditBasePrice(uint _creditBasePrice) public onlyOwner {\n\t\tcreditBasePrice = _creditBasePrice;\n\t}\n\t\n}",
  "sourcePath": "/Users/luffy/Development/Workspace/ping-contracts/contracts/domains/AttentionMarket.sol",
  "compiler": {
    "name": "solc",
    "version": "0.4.18+commit.9cf6e910.Emscripten.clang"
  },
  "schemaVersion": "1.0.1",
  "updatedAt": "2017-12-21T02:03:09.201Z"
}