{
  "contractName": "AttentionMarket",
  "abi": [
    {
      "constant": true,
      "inputs": [
        {
          "name": "_quantity",
          "type": "uint256"
        },
        {
          "name": "_when",
          "type": "bytes"
        }
      ],
      "name": "getMyRemainingCredits",
      "outputs": [
        {
          "name": "",
          "type": "uint256"
        }
      ],
      "payable": false,
      "stateMutability": "view",
      "type": "function"
    },
    {
      "constant": true,
      "inputs": [],
      "name": "owner",
      "outputs": [
        {
          "name": "",
          "type": "address"
        }
      ],
      "payable": false,
      "stateMutability": "view",
      "type": "function"
    },
    {
      "constant": false,
      "inputs": [
        {
          "name": "_when",
          "type": "bytes"
        },
        {
          "name": "_quantity",
          "type": "uint256"
        }
      ],
      "name": "buyCredits",
      "outputs": [
        {
          "name": "",
          "type": "address"
        }
      ],
      "payable": true,
      "stateMutability": "payable",
      "type": "function"
    },
    {
      "constant": true,
      "inputs": [
        {
          "name": "contractKey",
          "type": "string"
        }
      ],
      "name": "lookupAddress",
      "outputs": [
        {
          "name": "",
          "type": "address"
        }
      ],
      "payable": false,
      "stateMutability": "view",
      "type": "function"
    },
    {
      "constant": false,
      "inputs": [
        {
          "name": "_quantity",
          "type": "uint256"
        }
      ],
      "name": "redeemCredits",
      "outputs": [],
      "payable": false,
      "stateMutability": "nonpayable",
      "type": "function"
    },
    {
      "anonymous": false,
      "inputs": [
        {
          "indexed": false,
          "name": "newOwner",
          "type": "address"
        },
        {
          "indexed": false,
          "name": "_when",
          "type": "bytes"
        },
        {
          "indexed": false,
          "name": "_quantity",
          "type": "uint256"
        },
        {
          "indexed": false,
          "name": "_price",
          "type": "uint256"
        },
        {
          "indexed": false,
          "name": "_totalCost",
          "type": "uint256"
        }
      ],
      "name": "transferOwnership",
      "type": "function",
      "constant": false,
      "outputs": [],
      "payable": false,
      "stateMutability": "nonpayable"
    },
    {
      "anonymous": false,
      "inputs": [
        {
          "indexed": false,
          "name": "_buyer",
          "type": "address"
        },
        {
          "indexed": false,
          "name": "_when",
          "type": "bytes"
        },
        {
          "indexed": false,
          "name": "_quantity",
          "type": "uint256"
        },
        {
          "indexed": false,
          "name": "_price",
          "type": "uint256"
        },
        {
          "indexed": false,
          "name": "_totalCost",
          "type": "uint256"
        }
      ],
      "name": "AttentionCreditBuyEvent",
      "type": "event"
    },
    {
      "anonymous": false,
      "inputs": [
        {
          "indexed": true,
          "name": "previousOwner",
          "type": "address"
        },
        {
          "indexed": true,
          "name": "newOwner",
          "type": "address"
        }
      ],
      "name": "OwnershipTransferred",
      "type": "event"
    }
  ],
  "bytecode": "0x6060604052336000806101000a81548173ffffffffffffffffffffffffffffffffffffffff021916908373ffffffffffffffffffffffffffffffffffffffff160217905550731d3b2638a7cc9f2cb3d298a3da7a90b67e5506ed600160006101000a81548173ffffffffffffffffffffffffffffffffffffffff021916908373ffffffffffffffffffffffffffffffffffffffff160217905550610b63806100a86000396000f300606060405260043610610078576000357c0100000000000000000000000000000000000000000000000000000000900463ffffffff16806369dc0c121461007d5780638da5cb5b146100a6578063ab59f4c6146100fb578063c0410f7b14610156578063c9f18ebd146101f3578063f2fde38b14610216575b600080fd5b341561008857600080fd5b61009061024f565b6040518082815260200191505060405180910390f35b34156100b157600080fd5b6100b9610296565b604051808273ffffffffffffffffffffffffffffffffffffffff1673ffffffffffffffffffffffffffffffffffffffff16815260200191505060405180910390f35b610154600480803590602001908201803590602001908080601f016020809104026020016040519081016040528093929190818152602001838380828437820191505050505050919080359060200190919050506102bb565b005b341561016157600080fd5b6101b1600480803590602001908201803590602001908080601f0160208091040260200160405190810160405280939291908181526020018383808284378201915050505050509190505061056a565b604051808273ffffffffffffffffffffffffffffffffffffffff1673ffffffffffffffffffffffffffffffffffffffff16815260200191505060405180910390f35b34156101fe57600080fd5b610214600480803590602001909190505061068c565b005b341561022157600080fd5b61024d600480803573ffffffffffffffffffffffffffffffffffffffff1690602001909190505061068f565b005b6000600260003373ffffffffffffffffffffffffffffffffffffffff1673ffffffffffffffffffffffffffffffffffffffff16815260200190815260200160002054905090565b6000809054906101000a900473ffffffffffffffffffffffffffffffffffffffff1681565b6000806000806102ca866107e4565b935084840292508234101515156102e057600080fd5b84600260003373ffffffffffffffffffffffffffffffffffffffff1673ffffffffffffffffffffffffffffffffffffffff168152602001908152602001600020600082825401925050819055506003805480600101828161034191906109a2565b9160005260206000209060060201600060c0604051908101604052803373ffffffffffffffffffffffffffffffffffffffff1681526020018a815260200189815260200188815260200187815260200142815250909190915060008201518160000160006101000a81548173ffffffffffffffffffffffffffffffffffffffff021916908373ffffffffffffffffffffffffffffffffffffffff16021790555060208201518160010190805190602001906103fd9291906109d4565b5060408201518160020155606082015181600301556080820151816004015560a082015181600501555050508234119150811561047a5782340390503373ffffffffffffffffffffffffffffffffffffffff166108fc829081150290604051600060405180830381858888f19350505050151561047957600080fd5b5b7f90c215e2e8a0d3338021216235626128cdd142d8f105209d034fa97b82bed1943387878787604051808673ffffffffffffffffffffffffffffffffffffffff1673ffffffffffffffffffffffffffffffffffffffff16815260200180602001858152602001848152602001838152602001828103825286818151815260200191508051906020019080838360005b83811015610524578082015181840152602081019050610509565b50505050905090810190601f1680156105515780820380516001836020036101000a031916815260200191505b50965050505050505060405180910390a1505050505050565b6000600160009054906101000a900473ffffffffffffffffffffffffffffffffffffffff1673ffffffffffffffffffffffffffffffffffffffff1663bf40fac1836000604051602001526040518263ffffffff167c01000000000000000000000000000000000000000000000000000000000281526004018080602001828103825283818151815260200191508051906020019080838360005b8381101561061f578082015181840152602081019050610604565b50505050905090810190601f16801561064c5780820380516001836020036101000a031916815260200191505b5092505050602060405180830381600087803b151561066a57600080fd5b6102c65a03f1151561067b57600080fd5b505050604051805190509050919050565b50565b6000809054906101000a900473ffffffffffffffffffffffffffffffffffffffff1673ffffffffffffffffffffffffffffffffffffffff163373ffffffffffffffffffffffffffffffffffffffff161415156106ea57600080fd5b600073ffffffffffffffffffffffffffffffffffffffff168173ffffffffffffffffffffffffffffffffffffffff161415151561072657600080fd5b8073ffffffffffffffffffffffffffffffffffffffff166000809054906101000a900473ffffffffffffffffffffffffffffffffffffffff1673ffffffffffffffffffffffffffffffffffffffff167f8be0079c531659141344cd1fd0a4f28419497f9722a3daafe3b4186f6b6457e060405160405180910390a3806000806101000a81548173ffffffffffffffffffffffffffffffffffffffff021916908373ffffffffffffffffffffffffffffffffffffffff16021790555050565b60008061084c606060405190810160405280602581526020017f75726e3a636f6e74726163743a617474656e74696f6e2d70726963652d70726f81526020017f766964657200000000000000000000000000000000000000000000000000000081525061056a565b90508073ffffffffffffffffffffffffffffffffffffffff16638ac06f506000809054906101000a900473ffffffffffffffffffffffffffffffffffffffff16856000604051602001526040518363ffffffff167c0100000000000000000000000000000000000000000000000000000000028152600401808373ffffffffffffffffffffffffffffffffffffffff1673ffffffffffffffffffffffffffffffffffffffff16815260200180602001828103825283818151815260200191508051906020019080838360005b83811015610933578082015181840152602081019050610918565b50505050905090810190601f1680156109605780820380516001836020036101000a031916815260200191505b509350505050602060405180830381600087803b151561097f57600080fd5b6102c65a03f1151561099057600080fd5b50505060405180519050915050919050565b8154818355818115116109cf576006028160060283600052602060002091820191016109ce9190610a54565b5b505050565b828054600181600116156101000203166002900490600052602060002090601f016020900481019282601f10610a1557805160ff1916838001178555610a43565b82800160010185558215610a43579182015b82811115610a42578251825591602001919060010190610a27565b5b509050610a509190610aca565b5090565b610ac791905b80821115610ac357600080820160006101000a81549073ffffffffffffffffffffffffffffffffffffffff0219169055600182016000610a9a9190610aef565b600282016000905560038201600090556004820160009055600582016000905550600601610a5a565b5090565b90565b610aec91905b80821115610ae8576000816000905550600101610ad0565b5090565b90565b50805460018160011615610100020316600290046000825580601f10610b155750610b34565b601f016020900490600052602060002090810190610b339190610aca565b5b505600a165627a7a72305820069f74b91593c0e5635c255e92080543deabdabf3d1a299e5ba5afc8d5750b2d0029",
  "source": "pragma solidity ^0.4.18;\n\nimport \"./extensions/Proxy.sol\";\nimport \"./providers/AttentionPriceProvider.sol\";\nimport \"zeppelin-solidity/contracts/ownership/Ownable.sol\";\n\ncontract AttentionMarket is Ownable, Proxy {\n\n  struct AttentionCreditInvoice {\n    address buyer;\n    bytes when;\n    uint quantity;\n    uint price;\n    uint totalCost;\n    uint purchasedAt;\n  }\n\n  mapping(address => uint) buyerCredits;\n  AttentionCreditInvoice[] buyerInvoices;\n\t \n  event AttentionCreditBuyEvent(address _buyer, bytes _when, uint _quantity, uint _price, uint _totalCost);\n\t\t\n  function buyCredits(bytes _when, uint _quantity) public payable {\n    uint attentionPrice = getOwnerAttentionPrice(_when);\n    uint totalCost = attentionPrice * _quantity;\t\t\n    require(msg.value >= totalCost);\n\n    buyerCredits[msg.sender] += _quantity;\n    buyerInvoices.push(AttentionCreditInvoice(msg.sender, _when, _quantity, attentionPrice, totalCost, now));\n\t\t\n    bool overpaid = msg.value > totalCost;\n    if (overpaid) {\n      uint refund = msg.value - totalCost;\n      if (!msg.sender.send(refund)) {\n        revert();\n      }\n    }\n\t\t\n    AttentionCreditBuyEvent(msg.sender, _when, _quantity, attentionPrice, totalCost);\n  }\n  \n  function redeemCredits(uint _quantity) public {\n    // To be completed.\n  }\n\t\n  function getMyRemainingCredits() public view returns (uint) {\n    return buyerCredits[msg.sender];\n  }\n  \n  function getOwnerAttentionPrice(bytes _when) private returns (uint) {\n    AttentionPriceProvider attentionPriceProvider = AttentionPriceProvider(lookupAddress(\"urn:contract:attention-price-provider\"));\n    return attentionPriceProvider.getPrice(owner, _when);\n  }\n\t\n}",
  "sourcePath": "/Users/luffy/Development/Workspace/ping-contracts/contracts/AttentionMarket.sol",
  "compiler": {
    "name": "solc",
    "version": "0.4.18+commit.9cf6e910.Emscripten.clang"
  },
  "schemaVersion": "1.0.1",
  "updatedAt": "2017-12-22T17:50:42.762Z"
}