{
  "contractName": "AttentionMarket",
  "abi": [
    {
      "constant": false,
      "inputs": [
        {
          "name": "_bookingKey",
          "type": "bytes32"
        }
      ],
      "name": "completeBooking",
      "outputs": [],
      "payable": false,
      "stateMutability": "nonpayable",
      "type": "function"
    },
    {
      "constant": false,
      "inputs": [
        {
          "name": "_bookingKey",
          "type": "bytes32"
        }
      ],
      "name": "acceptBooking",
      "outputs": [],
      "payable": false,
      "stateMutability": "nonpayable",
      "type": "function"
    },
    {
      "constant": true,
      "inputs": [
        {
          "name": "_bookingKey",
          "type": "bytes32"
        }
      ],
      "name": "getBooking",
      "outputs": [
        {
          "name": "senderAddress",
          "type": "address"
        },
        {
          "name": "recipientAddress",
          "type": "address"
        },
        {
          "name": "durationInMinutes",
          "type": "uint32"
        },
        {
          "name": "paidAmount",
          "type": "uint32"
        },
        {
          "name": "status",
          "type": "uint8"
        }
      ],
      "payable": false,
      "stateMutability": "view",
      "type": "function"
    },
    {
      "constant": false,
      "inputs": [
        {
          "name": "_bookingKey",
          "type": "bytes32"
        },
        {
          "name": "_senderAddress",
          "type": "address"
        },
        {
          "name": "_recipientAddress",
          "type": "address"
        },
        {
          "name": "_durationInMinutes",
          "type": "uint32"
        },
        {
          "name": "_paidAmount",
          "type": "uint32"
        }
      ],
      "name": "requestBooking",
      "outputs": [],
      "payable": false,
      "stateMutability": "nonpayable",
      "type": "function"
    },
    {
      "constant": false,
      "inputs": [
        {
          "name": "_bookingKey",
          "type": "bytes32"
        }
      ],
      "name": "rejectBooking",
      "outputs": [],
      "payable": false,
      "stateMutability": "nonpayable",
      "type": "function"
    }
  ],
  "bytecode": "0x6060604052341561000f57600080fd5b6106de8061001e6000396000f30060606040526004361061006d576000357c0100000000000000000000000000000000000000000000000000000000900463ffffffff16806323b42659146100725780637d8ed7ac14610099578063bc94f7f8146100c0578063dabd3e5014610195578063dae2bfad14610218575b600080fd5b341561007d57600080fd5b61009760048080356000191690602001909190505061023f565b005b34156100a457600080fd5b6100be600480803560001916906020019091905050610288565b005b34156100cb57600080fd5b6100e56004808035600019169060200190919050506102d1565b604051808673ffffffffffffffffffffffffffffffffffffffff1673ffffffffffffffffffffffffffffffffffffffff1681526020018573ffffffffffffffffffffffffffffffffffffffff1673ffffffffffffffffffffffffffffffffffffffff1681526020018463ffffffff1663ffffffff1681526020018363ffffffff1663ffffffff16815260200182600381111561017d57fe5b60ff1681526020019550505050505060405180910390f35b34156101a057600080fd5b61021660048080356000191690602001909190803573ffffffffffffffffffffffffffffffffffffffff1690602001909190803573ffffffffffffffffffffffffffffffffffffffff1690602001909190803563ffffffff1690602001909190803563ffffffff16906020019091905050610391565b005b341561022357600080fd5b61023d600480803560001916906020019091905050610618565b005b60006002600083600019166000191681526020019081526020016000209050600381600201601c6101000a81548160ff0219169083600381111561027f57fe5b02179055505050565b60006002600083600019166000191681526020019081526020016000209050600181600201601c6101000a81548160ff021916908360038111156102c857fe5b02179055505050565b60008060008060008060026000886000191660001916815260200190815260200160002090508060010160009054906101000a900473ffffffffffffffffffffffffffffffffffffffff1695508060020160009054906101000a900473ffffffffffffffffffffffffffffffffffffffff1694508060020160149054906101000a900463ffffffff1693508060020160189054906101000a900463ffffffff16925080600201601c9054906101000a900460ff1691505091939590929450565b60c060405190810160405280866000191681526020018573ffffffffffffffffffffffffffffffffffffffff1681526020018473ffffffffffffffffffffffffffffffffffffffff1681526020018363ffffffff1681526020018263ffffffff1681526020016000600381111561040457fe5b8152506002600087600019166000191681526020019081526020016000206000820151816000019060001916905560208201518160010160006101000a81548173ffffffffffffffffffffffffffffffffffffffff021916908373ffffffffffffffffffffffffffffffffffffffff16021790555060408201518160020160006101000a81548173ffffffffffffffffffffffffffffffffffffffff021916908373ffffffffffffffffffffffffffffffffffffffff16021790555060608201518160020160146101000a81548163ffffffff021916908363ffffffff16021790555060808201518160020160186101000a81548163ffffffff021916908363ffffffff16021790555060a082015181600201601c6101000a81548160ff0219169083600381111561053257fe5b02179055509050506000808573ffffffffffffffffffffffffffffffffffffffff1673ffffffffffffffffffffffffffffffffffffffff168152602001908152602001600020805480600101828161058a9190610661565b916000526020600020900160008790919091509060001916905550600160008473ffffffffffffffffffffffffffffffffffffffff1673ffffffffffffffffffffffffffffffffffffffff16815260200190815260200160002080548060010182816105f69190610661565b9160005260206000209001600087909190915090600019169055505050505050565b60006002600083600019166000191681526020019081526020016000209050600281600201601c6101000a81548160ff0219169083600381111561065857fe5b02179055505050565b81548183558181151161068857818360005260206000209182019101610687919061068d565b5b505050565b6106af91905b808211156106ab576000816000905550600101610693565b5090565b905600a165627a7a72305820e9ef10a08a47107d05881724d1a3ea02a92a2551af2ca3ce0abd613d28811f270029",
  "source": "pragma solidity ^0.4.18;\n\ncontract AttentionMarket {\n\n  mapping(address => bytes32[]) senderToBookingKeyMap;\n  mapping(address => bytes32[]) recipientToBookingKeyMap;\n  mapping(bytes32 => Booking) bookingKeyToBookingMap;\n  \n  struct Booking {\n    bytes32 bookingKey;\n    address senderAddress;\n    address recipientAddress;\n    uint32 durationInMinutes;\n    uint32 paidAmount;\n    Status status;\n  }\n  \n  enum Status {\n    Requested,\n    Accepted,\n    Rejected,\n    Completed\n  }\n\t\n\tfunction requestBooking(bytes32 _bookingKey, address _senderAddress, address _recipientAddress, uint32 _durationInMinutes, uint32 _paidAmount) public {\n    bookingKeyToBookingMap[_bookingKey] = Booking(_bookingKey, _senderAddress, _recipientAddress, _durationInMinutes, _paidAmount, Status.Requested);\n    senderToBookingKeyMap[_senderAddress].push(_bookingKey);\n    recipientToBookingKeyMap[_recipientAddress].push(_bookingKey);\n  }\n  \n  function getBooking(bytes32 _bookingKey) public view returns (address senderAddress, address recipientAddress, uint32 durationInMinutes, uint32 paidAmount, Status status) {\n    Booking storage booking = bookingKeyToBookingMap[_bookingKey];\n    \n    senderAddress = booking.senderAddress;\n    recipientAddress = booking.recipientAddress;\n    durationInMinutes = booking.durationInMinutes;\n    paidAmount = booking.paidAmount;\n    status = booking.status;\n  }\n\n  function acceptBooking(bytes32 _bookingKey) public {\n    Booking storage booking = bookingKeyToBookingMap[_bookingKey];\n    booking.status = Status.Accepted;\n  }\n  \n  function rejectBooking(bytes32 _bookingKey) public {\n    Booking storage booking = bookingKeyToBookingMap[_bookingKey];\n    booking.status = Status.Rejected;\n  }\n  \n  function completeBooking(bytes32 _bookingKey) public {\n    Booking storage booking = bookingKeyToBookingMap[_bookingKey];\n    booking.status = Status.Completed;\n  }\n\t\n}",
  "sourcePath": "/Users/luffy/Development/Workspace/pendulum-contracts/contracts/AttentionMarket.sol",
  "compiler": {
    "name": "solc",
    "version": "0.4.18+commit.9cf6e910.Emscripten.clang"
  },
  "schemaVersion": "1.0.1",
  "updatedAt": "2018-01-12T01:36:09.087Z"
}