{
  "contractName": "AttentionMarket",
  "abi": [
    {
      "constant": true,
      "inputs": [
        {
          "name": "senderAddress",
          "type": "address"
        }
      ],
      "name": "getBookingKeysBySender",
      "outputs": [
        {
          "name": "",
          "type": "bytes32[]"
        }
      ],
      "payable": false,
      "stateMutability": "view",
      "type": "function"
    },
    {
      "constant": false,
      "inputs": [
        {
          "name": "_bookingKey",
          "type": "bytes32"
        },
        {
          "name": "_senderAddress",
          "type": "address"
        },
        {
          "name": "_recipientAddress",
          "type": "address"
        },
        {
          "name": "_durationInMinutes",
          "type": "uint256"
        },
        {
          "name": "_paidAmount",
          "type": "uint256"
        }
      ],
      "name": "completeBooking",
      "outputs": [],
      "payable": true,
      "stateMutability": "payable",
      "type": "function"
    },
    {
      "constant": false,
      "inputs": [
        {
          "name": "_bookingKey",
          "type": "bytes32"
        },
        {
          "name": "_senderAddress",
          "type": "address"
        },
        {
          "name": "_recipientAddress",
          "type": "address"
        },
        {
          "name": "_durationInMinutes",
          "type": "uint256"
        },
        {
          "name": "_paidAmount",
          "type": "uint256"
        }
      ],
      "name": "requestBooking",
      "outputs": [
        {
          "name": "senderAddress",
          "type": "address"
        },
        {
          "name": "recipientAddress",
          "type": "address"
        },
        {
          "name": "durationInMinutes",
          "type": "uint32"
        },
        {
          "name": "paidAmount",
          "type": "uint32"
        },
        {
          "name": "status",
          "type": "uint8"
        }
      ],
      "payable": true,
      "stateMutability": "payable",
      "type": "function"
    },
    {
      "constant": false,
      "inputs": [
        {
          "name": "_bookingKey",
          "type": "bytes32"
        },
        {
          "name": "_senderAddress",
          "type": "address"
        },
        {
          "name": "_recipientAddress",
          "type": "address"
        },
        {
          "name": "_durationInMinutes",
          "type": "uint32"
        },
        {
          "name": "_paidAmount",
          "type": "uint32"
        }
      ],
      "name": "acceptBooking",
      "outputs": [
        {
          "name": "senderAddress",
          "type": "address"
        },
        {
          "name": "recipientAddress",
          "type": "address"
        },
        {
          "name": "durationInMinutes",
          "type": "uint256"
        },
        {
          "name": "paidAmount",
          "type": "uint256"
        },
        {
          "name": "status",
          "type": "uint8"
        }
      ],
      "payable": false,
      "stateMutability": "nonpayable",
      "type": "function"
    },
    {
      "constant": true,
      "inputs": [
        {
          "name": "recipientAddress",
          "type": "address"
        }
      ],
      "name": "getBookingKeysByRecipient",
      "outputs": [
        {
          "name": "",
          "type": "bytes32[]"
        }
      ],
      "payable": false,
      "stateMutability": "view",
      "type": "function"
    },
    {
      "constant": true,
      "inputs": [
        {
          "name": "_bookingKey",
          "type": "bytes32"
        }
      ],
      "name": "getBooking",
      "outputs": [
        {
          "name": "senderAddress",
          "type": "address"
        },
        {
          "name": "recipientAddress",
          "type": "address"
        },
        {
          "name": "durationInMinutes",
          "type": "uint256"
        },
        {
          "name": "paidAmount",
          "type": "uint256"
        },
        {
          "name": "status",
          "type": "uint8"
        }
      ],
      "payable": false,
      "stateMutability": "view",
      "type": "function"
    },
    {
      "constant": false,
      "inputs": [
        {
          "name": "_bookingKey",
          "type": "bytes32"
        }
      ],
      "name": "rejectBooking",
      "outputs": [],
      "payable": true,
      "stateMutability": "payable",
      "type": "function"
    }
  ],
  "bytecode": "0x6060604052341561000f57600080fd5b610c608061001e6000396000f300606060405260043610610083576000357c0100000000000000000000000000000000000000000000000000000000900463ffffffff1680631f5f6af51461008857806323b4265914610116578063709401ef146101325780637d8ed7ac1461019e5780637e7be20c146101c5578063bc94f7f814610253578063dae2bfad14610310575b600080fd5b341561009357600080fd5b6100bf600480803573ffffffffffffffffffffffffffffffffffffffff1690602001909190505061032c565b6040518080602001828103825283818151815260200191508051906020019060200280838360005b838110156101025780820151818401526020810190506100e7565b505050509050019250505060405180910390f35b6101306004808035600019169060200190919050506103cc565b005b61019c60048080356000191690602001909190803573ffffffffffffffffffffffffffffffffffffffff1690602001909190803573ffffffffffffffffffffffffffffffffffffffff1690602001909190803590602001909190803590602001909190505061053d565b005b34156101a957600080fd5b6101c3600480803560001916906020019091905050610846565b005b34156101d057600080fd5b6101fc600480803573ffffffffffffffffffffffffffffffffffffffff1690602001909190505061091d565b6040518080602001828103825283818151815260200191508051906020019060200280838360005b8381101561023f578082015181840152602081019050610224565b505050509050019250505060405180910390f35b341561025e57600080fd5b6102786004808035600019169060200190919050506109be565b604051808673ffffffffffffffffffffffffffffffffffffffff1673ffffffffffffffffffffffffffffffffffffffff1681526020018573ffffffffffffffffffffffffffffffffffffffff1673ffffffffffffffffffffffffffffffffffffffff1681526020018481526020018381526020018260048111156102f857fe5b60ff1681526020019550505050505060405180910390f35b61032a600480803560001916906020019091905050610a5e565b005b610334610bcf565b6000808373ffffffffffffffffffffffffffffffffffffffff1673ffffffffffffffffffffffffffffffffffffffff1681526020019081526020016000208054806020026020016040519081016040528092919081815260200182805480156103c057602002820191906000526020600020905b815460001916815260200190600101908083116103a8575b50505050509050919050565b600060026000836000191660001916815260200190815260200160002090508060010160009054906101000a900473ffffffffffffffffffffffffffffffffffffffff1673ffffffffffffffffffffffffffffffffffffffff163373ffffffffffffffffffffffffffffffffffffffff1614151561044657fe5b6001600481111561045357fe5b8160050160009054906101000a900460ff16600481111561047057fe5b14806104a357506002600481111561048457fe5b8160050160009054906101000a900460ff1660048111156104a157fe5b145b15156104ab57fe5b60048160050160006101000a81548160ff021916908360048111156104cc57fe5b02179055508060020160009054906101000a900473ffffffffffffffffffffffffffffffffffffffff1673ffffffffffffffffffffffffffffffffffffffff166108fc82600401549081150290604051600060405180830381858888f19350505050151561053957600080fd5b5050565b6000806000600481111561054d57fe5b60026000896000191660001916815260200190815260200160002060050160009054906101000a900460ff16600481111561058457fe5b14151561058d57fe5b60008411151561059957fe5b600083101515156105a657fe5b8234101515156105b257fe5b60c060405190810160405280886000191681526020018773ffffffffffffffffffffffffffffffffffffffff1681526020018673ffffffffffffffffffffffffffffffffffffffff1681526020018581526020018481526020016001600481111561061957fe5b8152506002600089600019166000191681526020019081526020016000206000820151816000019060001916905560208201518160010160006101000a81548173ffffffffffffffffffffffffffffffffffffffff021916908373ffffffffffffffffffffffffffffffffffffffff16021790555060408201518160020160006101000a81548173ffffffffffffffffffffffffffffffffffffffff021916908373ffffffffffffffffffffffffffffffffffffffff160217905550606082015181600301556080820151816004015560a08201518160050160006101000a81548160ff0219169083600481111561070d57fe5b02179055509050506000808773ffffffffffffffffffffffffffffffffffffffff1673ffffffffffffffffffffffffffffffffffffffff16815260200190815260200160002080548060010182816107659190610be3565b916000526020600020900160008990919091509060001916905550600160008673ffffffffffffffffffffffffffffffffffffffff1673ffffffffffffffffffffffffffffffffffffffff16815260200190815260200160002080548060010182816107d19190610be3565b9160005260206000209001600089909190915090600019169055508234119150811561083d5782340390503373ffffffffffffffffffffffffffffffffffffffff166108fc829081150290604051600060405180830381858888f19350505050151561083c57600080fd5b5b50505050505050565b600060026000836000191660001916815260200190815260200160002090508060020160009054906101000a900473ffffffffffffffffffffffffffffffffffffffff1673ffffffffffffffffffffffffffffffffffffffff163373ffffffffffffffffffffffffffffffffffffffff161415156108c057fe5b600160048111156108cd57fe5b8160050160009054906101000a900460ff1660048111156108ea57fe5b1415156108f357fe5b60028160050160006101000a81548160ff0219169083600481111561091457fe5b02179055505050565b610925610bcf565b600160008373ffffffffffffffffffffffffffffffffffffffff1673ffffffffffffffffffffffffffffffffffffffff1681526020019081526020016000208054806020026020016040519081016040528092919081815260200182805480156109b257602002820191906000526020600020905b8154600019168152602001906001019080831161099a575b50505050509050919050565b60008060008060008060026000886000191660001916815260200190815260200160002090508060010160009054906101000a900473ffffffffffffffffffffffffffffffffffffffff1695508060020160009054906101000a900473ffffffffffffffffffffffffffffffffffffffff16945080600301549350806004015492508060050160009054906101000a900460ff1691505091939590929450565b600060026000836000191660001916815260200190815260200160002090508060020160009054906101000a900473ffffffffffffffffffffffffffffffffffffffff1673ffffffffffffffffffffffffffffffffffffffff163373ffffffffffffffffffffffffffffffffffffffff16141515610ad857fe5b60016004811115610ae557fe5b8160050160009054906101000a900460ff166004811115610b0257fe5b1480610b35575060026004811115610b1657fe5b8160050160009054906101000a900460ff166004811115610b3357fe5b145b1515610b3d57fe5b60038160050160006101000a81548160ff02191690836004811115610b5e57fe5b02179055508060010160009054906101000a900473ffffffffffffffffffffffffffffffffffffffff1673ffffffffffffffffffffffffffffffffffffffff166108fc82600401549081150290604051600060405180830381858888f193505050501515610bcb57600080fd5b5050565b602060405190810160405280600081525090565b815481835581811511610c0a57818360005260206000209182019101610c099190610c0f565b5b505050565b610c3191905b80821115610c2d576000816000905550600101610c15565b5090565b905600a165627a7a72305820fe875f651f1ba31cf015298751a0986442bdce1ad0b97a321dc5087ea5b1ffc10029",
  "source": "pragma solidity ^0.4.18;\n\ncontract AttentionMarket {\n\n  mapping(address => bytes32[]) senderToBookingKeyMap;\n  mapping(address => bytes32[]) recipientToBookingKeyMap;\n  mapping(bytes32 => Booking) bookingKeyToBookingMap;\n  \n  struct Booking {\n    bytes32 bookingKey;\n    address senderAddress;\n    address recipientAddress;\n    uint durationInMinutes;\n    uint paidAmount;\n    Status status;\n  }\n  \n  enum Status {\n    Invalid,\n    Requested,\n    Accepted,\n    Rejected,\n    Completed\n  }\n\t\n\tfunction requestBooking(bytes32 _bookingKey, address _senderAddress, address _recipientAddress, uint _durationInMinutes, uint _paidAmount) public payable {\n\t  assert(bookingKeyToBookingMap[_bookingKey].status == Status.Invalid);\n\t  assert(_durationInMinutes > 0);\n\t  assert(_paidAmount >= 0);\n\t  assert(msg.value >= _paidAmount);\n\t  \n    bookingKeyToBookingMap[_bookingKey] = Booking(_bookingKey, _senderAddress, _recipientAddress, _durationInMinutes, _paidAmount, Status.Requested);\n    senderToBookingKeyMap[_senderAddress].push(_bookingKey);\n    recipientToBookingKeyMap[_recipientAddress].push(_bookingKey);\n    \n    bool overpaid = msg.value > _paidAmount;\n    if (overpaid) {\n      uint refundAmount = msg.value - _paidAmount;\n      msg.sender.transfer(refundAmount);\n    }\n  }\n  \n  function getBooking(bytes32 _bookingKey) public view returns (address senderAddress, address recipientAddress, uint durationInMinutes, uint paidAmount, Status status) {\n    Booking storage booking = bookingKeyToBookingMap[_bookingKey];\n    \n    senderAddress = booking.senderAddress;\n    recipientAddress = booking.recipientAddress;\n    durationInMinutes = booking.durationInMinutes;\n    paidAmount = booking.paidAmount;\n    status = booking.status;\n  }\n\n  function acceptBooking(bytes32 _bookingKey) public {\n    Booking storage booking = bookingKeyToBookingMap[_bookingKey];\n    \n    assert(msg.sender == booking.recipientAddress);\n    assert(booking.status == Status.Requested);\n    \n    booking.status = Status.Accepted;\n  }\n  \n  function rejectBooking(bytes32 _bookingKey) public payable {\n    Booking storage booking = bookingKeyToBookingMap[_bookingKey];\n    \n    assert(msg.sender == booking.recipientAddress);\n    assert(booking.status == Status.Requested || booking.status == Status.Accepted);\n    \n    booking.status = Status.Rejected;\n    booking.senderAddress.transfer(booking.paidAmount);\n  }\n  \n  function completeBooking(bytes32 _bookingKey) public payable {\n    Booking storage booking = bookingKeyToBookingMap[_bookingKey];\n    \n    assert(msg.sender == booking.senderAddress);\n    assert(booking.status == Status.Requested || booking.status == Status.Accepted);\n    \n    booking.status = Status.Completed;\n    booking.recipientAddress.transfer(booking.paidAmount);\n  }\n  \n  function getBookingKeysBySender(address senderAddress) public view returns (bytes32[]) {\n    return senderToBookingKeyMap[senderAddress];\n  }\n  \n  function getBookingKeysByRecipient(address recipientAddress) public view returns (bytes32[]) {\n    return recipientToBookingKeyMap[recipientAddress];\n  }\n\t\n}",
  "sourcePath": "/Users/luffy/Development/Workspace/pendulum-contracts/contracts/AttentionMarket.sol",
  "compiler": {
    "name": "solc",
    "version": "0.4.18+commit.9cf6e910.Emscripten.clang"
  },
  "schemaVersion": "1.0.1",
  "updatedAt": "2018-01-12T02:09:33.960Z"
}