{
  "contractName": "AttentionMarket",
  "abi": [
    {
      "constant": false,
      "inputs": [
        {
          "name": "_quantity",
          "type": "uint256"
        },
        {
          "name": "_when",
          "type": "bytes"
        }
      ],
      "name": "purchaseCredits",
      "outputs": [],
      "payable": true,
      "stateMutability": "payable",
      "type": "function"
    },
    {
      "constant": true,
      "inputs": [],
      "name": "getRemainingCredits",
      "outputs": [
        {
          "name": "",
          "type": "uint256"
        }
      ],
      "payable": false,
      "stateMutability": "view",
      "type": "function"
    },
    {
      "constant": true,
      "inputs": [],
      "name": "owner",
      "outputs": [
        {
          "name": "",
          "type": "address"
        }
      ],
      "payable": false,
      "stateMutability": "view",
      "type": "function"
    },
    {
      "constant": true,
      "inputs": [
        {
          "name": "contractKey",
          "type": "string"
        }
      ],
      "name": "lookupAddress",
      "outputs": [
        {
          "name": "",
          "type": "address"
        }
      ],
      "payable": false,
      "stateMutability": "view",
      "type": "function"
    },
    {
      "constant": false,
      "inputs": [
        {
          "name": "newOwner",
          "type": "address"
        }
      ],
      "name": "transferOwnership",
      "outputs": [],
      "payable": false,
      "stateMutability": "nonpayable",
      "type": "function"
    },
    {
      "anonymous": false,
      "inputs": [
        {
          "indexed": false,
          "name": "_purchaser",
          "type": "address"
        },
        {
          "indexed": false,
          "name": "_quantity",
          "type": "uint256"
        },
        {
          "indexed": false,
          "name": "_when",
          "type": "bytes"
        },
        {
          "indexed": false,
          "name": "_price",
          "type": "uint256"
        },
        {
          "indexed": false,
          "name": "_totalCost",
          "type": "uint256"
        }
      ],
      "name": "AttentionCreditPurchaseEvent",
      "type": "event"
    },
    {
      "anonymous": false,
      "inputs": [
        {
          "indexed": true,
          "name": "previousOwner",
          "type": "address"
        },
        {
          "indexed": true,
          "name": "newOwner",
          "type": "address"
        }
      ],
      "name": "OwnershipTransferred",
      "type": "event"
    }
  ],
  "bytecode": "0x6060604052336000806101000a81548173ffffffffffffffffffffffffffffffffffffffff021916908373ffffffffffffffffffffffffffffffffffffffff160217905550731d3b2638a7cc9f2cb3d298a3da7a90b67e5506ed600160006101000a81548173ffffffffffffffffffffffffffffffffffffffff021916908373ffffffffffffffffffffffffffffffffffffffff160217905550610a24806100a86000396000f30060606040526004361061006d576000357c0100000000000000000000000000000000000000000000000000000000900463ffffffff16806350e0489b146100725780637c466ec5146100cd5780638da5cb5b146100f6578063c0410f7b1461014b578063f2fde38b146101e8575b600080fd5b6100cb600480803590602001909190803590602001908201803590602001908080601f01602080910402602001604051908101604052809392919081815260200183838082843782019150505050505091905050610221565b005b34156100d857600080fd5b6100e06104df565b6040518082815260200191505060405180910390f35b341561010157600080fd5b610109610526565b604051808273ffffffffffffffffffffffffffffffffffffffff1673ffffffffffffffffffffffffffffffffffffffff16815260200191505060405180910390f35b341561015657600080fd5b6101a6600480803590602001908201803590602001908080601f0160208091040260200160405190810160405280939291908181526020018383808284378201915050505050509190505061054b565b604051808273ffffffffffffffffffffffffffffffffffffffff1673ffffffffffffffffffffffffffffffffffffffff16815260200191505060405180910390f35b34156101f357600080fd5b61021f600480803573ffffffffffffffffffffffffffffffffffffffff1690602001909190505061066d565b005b6000806000806102526000809054906101000a900473ffffffffffffffffffffffffffffffffffffffff16866107c2565b9350858402925082341015151561026857600080fd5b85600460003373ffffffffffffffffffffffffffffffffffffffff1673ffffffffffffffffffffffffffffffffffffffff1681526020019081526020016000206000828254019250508190555085600260008282540192505081905550600380548060010182816102d99190610960565b9160005260206000209060050201600060a0604051908101604052803373ffffffffffffffffffffffffffffffffffffffff1681526020018a815260200188815260200187815260200142815250909190915060008201518160000160006101000a81548173ffffffffffffffffffffffffffffffffffffffff021916908373ffffffffffffffffffffffffffffffffffffffff16021790555060208201518160010155604082015181600201556060820151816003015560808201518160040155505050823411915081156103ef5782340390503373ffffffffffffffffffffffffffffffffffffffff166108fc829081150290604051600060405180830381858888f1935050505015156103ee57600080fd5b5b7f599b6993dbeec0fd5741b1f36bc6f191c32ec2db25c9251a0da2e7e6586869bc3387878787604051808673ffffffffffffffffffffffffffffffffffffffff1673ffffffffffffffffffffffffffffffffffffffff16815260200185815260200180602001848152602001838152602001828103825285818151815260200191508051906020019080838360005b8381101561049957808201518184015260208101905061047e565b50505050905090810190601f1680156104c65780820380516001836020036101000a031916815260200191505b50965050505050505060405180910390a1505050505050565b6000600460003373ffffffffffffffffffffffffffffffffffffffff1673ffffffffffffffffffffffffffffffffffffffff16815260200190815260200160002054905090565b6000809054906101000a900473ffffffffffffffffffffffffffffffffffffffff1681565b6000600160009054906101000a900473ffffffffffffffffffffffffffffffffffffffff1673ffffffffffffffffffffffffffffffffffffffff1663bf40fac1836000604051602001526040518263ffffffff167c01000000000000000000000000000000000000000000000000000000000281526004018080602001828103825283818151815260200191508051906020019080838360005b838110156106005780820151818401526020810190506105e5565b50505050905090810190601f16801561062d5780820380516001836020036101000a031916815260200191505b5092505050602060405180830381600087803b151561064b57600080fd5b6102c65a03f1151561065c57600080fd5b505050604051805190509050919050565b6000809054906101000a900473ffffffffffffffffffffffffffffffffffffffff1673ffffffffffffffffffffffffffffffffffffffff163373ffffffffffffffffffffffffffffffffffffffff161415156106c857600080fd5b600073ffffffffffffffffffffffffffffffffffffffff168173ffffffffffffffffffffffffffffffffffffffff161415151561070457600080fd5b8073ffffffffffffffffffffffffffffffffffffffff166000809054906101000a900473ffffffffffffffffffffffffffffffffffffffff1673ffffffffffffffffffffffffffffffffffffffff167f8be0079c531659141344cd1fd0a4f28419497f9722a3daafe3b4186f6b6457e060405160405180910390a3806000806101000a81548173ffffffffffffffffffffffffffffffffffffffff021916908373ffffffffffffffffffffffffffffffffffffffff16021790555050565b60008061082a606060405190810160405280602581526020017f75726e3a636f6e74726163743a617474656e74696f6e2d70726963652d70726f81526020017f766964657200000000000000000000000000000000000000000000000000000081525061054b565b90508073ffffffffffffffffffffffffffffffffffffffff16638ac06f5085856000604051602001526040518363ffffffff167c0100000000000000000000000000000000000000000000000000000000028152600401808373ffffffffffffffffffffffffffffffffffffffff1673ffffffffffffffffffffffffffffffffffffffff16815260200180602001828103825283818151815260200191508051906020019080838360005b838110156108f05780820151818401526020810190506108d5565b50505050905090810190601f16801561091d5780820380516001836020036101000a031916815260200191505b509350505050602060405180830381600087803b151561093c57600080fd5b6102c65a03f1151561094d57600080fd5b5050506040518051905091505092915050565b81548183558181151161098d5760050281600502836000526020600020918201910161098c9190610992565b5b505050565b6109f591905b808211156109f157600080820160006101000a81549073ffffffffffffffffffffffffffffffffffffffff0219169055600182016000905560028201600090556003820160009055600482016000905550600501610998565b5090565b905600a165627a7a72305820f9eb1095502f35267bd5b6bffa371002058c9a7cdc68d1e2cc980f2b2f18d1330029",
  "source": "pragma solidity ^0.4.18;\n\nimport \"./extensions/Proxy.sol\";\nimport \"./providers/AttentionPriceProvider.sol\";\nimport \"zeppelin-solidity/contracts/ownership/Ownable.sol\";\n\ncontract AttentionMarket is Ownable, Proxy {\n\n  uint totalCreditsSold;\n  AttentionCreditPurchase[] creditPurchases;\n  mapping(address => uint) purchaserCredits;\n\t \n  event AttentionCreditPurchaseEvent(address _purchaser, uint _quantity, bytes _when, uint _price, uint _totalCost);\n\t\n  struct AttentionCreditPurchase {\n    address purchaser;\n    uint quantity;\n    uint price;\n    uint totalCost;\n    uint purchasedAt;\n  }\n\t\n  function purchaseCredits(uint _quantity, bytes _when) public payable {\n    uint attentionPrice = getAttentionPrice(owner, _when);\n    uint totalCost = attentionPrice * _quantity;\t\t\n    require(msg.value >= totalCost);\n\n    purchaserCredits[msg.sender] += _quantity;\n    totalCreditsSold += _quantity;\n\t\t\n    creditPurchases.push(AttentionCreditPurchase(msg.sender, _quantity, attentionPrice, totalCost, now));\n\t\t\n    bool overpaid = msg.value > totalCost;\n    if (overpaid) {\n      uint refund = msg.value - totalCost;\n      if (!msg.sender.send(refund)) {\n        revert();\n      }\n    }\n\t\t\n    AttentionCreditPurchaseEvent(msg.sender, _quantity, _when, attentionPrice, totalCost);\n  }\n\t\n  function getRemainingCredits() public view returns (uint) {\n    return purchaserCredits[msg.sender];\n  }\n  \n  function getAttentionPrice(address _who, bytes _when) private returns (uint) {\n    AttentionPriceProvider attentionPriceProvider = AttentionPriceProvider(lookupAddress(\"urn:contract:attention-price-provider\"));\n    return attentionPriceProvider.getPrice(_who, _when);\n  }\n\t\n}",
  "sourcePath": "/Users/luffy/Development/Workspace/ping-contracts/contracts/AttentionMarket.sol",
  "compiler": {
    "name": "solc",
    "version": "0.4.18+commit.9cf6e910.Emscripten.clang"
  },
  "schemaVersion": "1.0.1",
  "updatedAt": "2017-12-22T07:10:56.972Z"
}