{
  "contractName": "ContractRegistryImpl",
  "abi": [
    {
      "constant": true,
      "inputs": [
        {
          "name": "contractUrn",
          "type": "string"
        }
      ],
      "name": "isExists",
      "outputs": [
        {
          "name": "",
          "type": "bool"
        }
      ],
      "payable": false,
      "stateMutability": "view",
      "type": "function"
    },
    {
      "constant": false,
      "inputs": [
        {
          "name": "contractUrn",
          "type": "string"
        },
        {
          "name": "contractAddress",
          "type": "address"
        }
      ],
      "name": "updateContract",
      "outputs": [],
      "payable": false,
      "stateMutability": "nonpayable",
      "type": "function"
    },
    {
      "constant": true,
      "inputs": [],
      "name": "owner",
      "outputs": [
        {
          "name": "",
          "type": "address"
        }
      ],
      "payable": false,
      "stateMutability": "view",
      "type": "function"
    },
    {
      "constant": false,
      "inputs": [
        {
          "name": "contractUrn",
          "type": "string"
        }
      ],
      "name": "removeContract",
      "outputs": [],
      "payable": false,
      "stateMutability": "nonpayable",
      "type": "function"
    },
    {
      "constant": true,
      "inputs": [
        {
          "name": "contractUrn",
          "type": "string"
        }
      ],
      "name": "getAddress",
      "outputs": [
        {
          "name": "",
          "type": "address"
        }
      ],
      "payable": false,
      "stateMutability": "view",
      "type": "function"
    },
    {
      "constant": false,
      "inputs": [
        {
          "name": "contractUrn",
          "type": "string"
        },
        {
          "name": "contractAddress",
          "type": "address"
        }
      ],
      "name": "addContract",
      "outputs": [],
      "payable": false,
      "stateMutability": "nonpayable",
      "type": "function"
    },
    {
      "constant": false,
      "inputs": [
        {
          "name": "newOwner",
          "type": "address"
        }
      ],
      "name": "transferOwnership",
      "outputs": [],
      "payable": false,
      "stateMutability": "nonpayable",
      "type": "function"
    },
    {
      "anonymous": false,
      "inputs": [
        {
          "indexed": true,
          "name": "previousOwner",
          "type": "address"
        },
        {
          "indexed": true,
          "name": "newOwner",
          "type": "address"
        }
      ],
      "name": "OwnershipTransferred",
      "type": "event"
    }
  ],
  "bytecode": "0x6060604052336000806101000a81548173ffffffffffffffffffffffffffffffffffffffff021916908373ffffffffffffffffffffffffffffffffffffffff1602179055506109d1806100536000396000f300606060405260043610610083576000357c0100000000000000000000000000000000000000000000000000000000900463ffffffff1680630d85d83914610088578063697a60b3146100fd5780638da5cb5b1461017957806397623b58146101ce578063bf40fac11461022b578063bf5b6016146102c8578063f2fde38b14610344575b600080fd5b341561009357600080fd5b6100e3600480803590602001908201803590602001908080601f0160208091040260200160405190810160405280939291908181526020018383808284378201915050505050509190505061037d565b604051808215151515815260200191505060405180910390f35b341561010857600080fd5b610177600480803590602001908201803590602001908080601f0160208091040260200160405190810160405280939291908181526020018383808284378201915050505050509190803573ffffffffffffffffffffffffffffffffffffffff1690602001909190505061042a565b005b341561018457600080fd5b61018c610547565b604051808273ffffffffffffffffffffffffffffffffffffffff1673ffffffffffffffffffffffffffffffffffffffff16815260200191505060405180910390f35b34156101d957600080fd5b610229600480803590602001908201803590602001908080601f0160208091040260200160405190810160405280939291908181526020018383808284378201915050505050509190505061056c565b005b341561023657600080fd5b610286600480803590602001908201803590602001908080601f01602080910402602001604051908101604052809392919081815260200183838082843782019150505050505091905050610689565b604051808273ffffffffffffffffffffffffffffffffffffffff1673ffffffffffffffffffffffffffffffffffffffff16815260200191505060405180910390f35b34156102d357600080fd5b610342600480803590602001908201803590602001908080601f0160208091040260200160405190810160405280939291908181526020018383808284378201915050505050509190803573ffffffffffffffffffffffffffffffffffffffff16906020019091905050610732565b005b341561034f57600080fd5b61037b600480803573ffffffffffffffffffffffffffffffffffffffff16906020019091905050610850565b005b6000806001836040518082805190602001908083835b6020831015156103b85780518252602082019150602081019050602083039250610393565b6001836020036101000a038019825116818451168082178552505050505050905001915050908152602001604051809103902060009054906101000a900473ffffffffffffffffffffffffffffffffffffffff1673ffffffffffffffffffffffffffffffffffffffff16149050919050565b6000809054906101000a900473ffffffffffffffffffffffffffffffffffffffff1673ffffffffffffffffffffffffffffffffffffffff163373ffffffffffffffffffffffffffffffffffffffff1614151561048557600080fd5b61048e8261037d565b151561049957600080fd5b806001836040518082805190602001908083835b6020831015156104d257805182526020820191506020810190506020830392506104ad565b6001836020036101000a038019825116818451168082178552505050505050905001915050908152602001604051809103902060006101000a81548173ffffffffffffffffffffffffffffffffffffffff021916908373ffffffffffffffffffffffffffffffffffffffff1602179055505050565b6000809054906101000a900473ffffffffffffffffffffffffffffffffffffffff1681565b6000809054906101000a900473ffffffffffffffffffffffffffffffffffffffff1673ffffffffffffffffffffffffffffffffffffffff163373ffffffffffffffffffffffffffffffffffffffff161415156105c757600080fd5b6105d08161037d565b15156105db57600080fd5b60006001826040518082805190602001908083835b60208310151561061557805182526020820191506020810190506020830392506105f0565b6001836020036101000a038019825116818451168082178552505050505050905001915050908152602001604051809103902060006101000a81548173ffffffffffffffffffffffffffffffffffffffff021916908373ffffffffffffffffffffffffffffffffffffffff16021790555050565b60006106948261037d565b151561069f57600080fd5b6001826040518082805190602001908083835b6020831015156106d757805182526020820191506020810190506020830392506106b2565b6001836020036101000a038019825116818451168082178552505050505050905001915050908152602001604051809103902060009054906101000a900473ffffffffffffffffffffffffffffffffffffffff169050919050565b6000809054906101000a900473ffffffffffffffffffffffffffffffffffffffff1673ffffffffffffffffffffffffffffffffffffffff163373ffffffffffffffffffffffffffffffffffffffff1614151561078d57600080fd5b6107968261037d565b1515156107a257600080fd5b806001836040518082805190602001908083835b6020831015156107db57805182526020820191506020810190506020830392506107b6565b6001836020036101000a038019825116818451168082178552505050505050905001915050908152602001604051809103902060006101000a81548173ffffffffffffffffffffffffffffffffffffffff021916908373ffffffffffffffffffffffffffffffffffffffff1602179055505050565b6000809054906101000a900473ffffffffffffffffffffffffffffffffffffffff1673ffffffffffffffffffffffffffffffffffffffff163373ffffffffffffffffffffffffffffffffffffffff161415156108ab57600080fd5b600073ffffffffffffffffffffffffffffffffffffffff168173ffffffffffffffffffffffffffffffffffffffff16141515156108e757600080fd5b8073ffffffffffffffffffffffffffffffffffffffff166000809054906101000a900473ffffffffffffffffffffffffffffffffffffffff1673ffffffffffffffffffffffffffffffffffffffff167f8be0079c531659141344cd1fd0a4f28419497f9722a3daafe3b4186f6b6457e060405160405180910390a3806000806101000a81548173ffffffffffffffffffffffffffffffffffffffff021916908373ffffffffffffffffffffffffffffffffffffffff160217905550505600a165627a7a7230582004dcff7f8755e57f9310effbde818981ad9ce47bd8f875a124a0a747131fd25a0029",
  "source": "pragma solidity ^0.4.18;\n\nimport \"./ContractRegistry.sol\";\nimport \"zeppelin-solidity/contracts/ownership/Ownable.sol\";\n\ncontract ContractRegistryImpl is ContractRegistry, Ownable {\n  \n  mapping(string => address) contractUrnToAddressMapping;\n\n  function addContract(string contractUrn, address contractAddress) public onlyOwner {\n    require(!isExists(contractUrn));\n    contractUrnToAddressMapping[contractUrn] = contractAddress;\n  }\n\n  function removeContract(string contractUrn) public onlyOwner {\n    require(isExists(contractUrn));\n    contractUrnToAddressMapping[contractUrn] = 0;\n  }\n\n  function updateContract(string contractUrn, address contractAddress) public onlyOwner {\n    require(isExists(contractUrn));\n    contractUrnToAddressMapping[contractUrn] = contractAddress;\n  }\n\n  function getAddress(string contractUrn) public view returns (address) {\n    require(isExists(contractUrn));\n    return contractUrnToAddressMapping[contractUrn];\n  }\n  \n  function isExists(string contractUrn) public view returns (bool) {\n    return contractUrnToAddressMapping[contractUrn] == 0;\n  }\n  \n}",
  "sourcePath": "/Users/luffy/Development/Workspace/ping-contracts/contracts/registries/ContractRegistryImpl.sol",
  "compiler": {
    "name": "solc",
    "version": "0.4.18+commit.9cf6e910.Emscripten.clang"
  },
  "schemaVersion": "1.0.1",
  "updatedAt": "2017-12-22T07:10:56.974Z"
}