{
  "contractName": "Proxy",
  "abi": [
    {
      "constant": true,
      "inputs": [
        {
          "name": "contractKey",
          "type": "string"
        }
      ],
      "name": "lookupAddress",
      "outputs": [
        {
          "name": "",
          "type": "address"
        }
      ],
      "payable": false,
      "stateMutability": "view",
      "type": "function"
    },
    {
      "inputs": [],
      "payable": false,
      "stateMutability": "nonpayable",
      "type": "constructor"
    }
  ],
  "bytecode": "0x6060604052341561000f57600080fd5b731d3b2638a7cc9f2cb3d298a3da7a90b67e5506ed6000806101000a81548173ffffffffffffffffffffffffffffffffffffffff021916908373ffffffffffffffffffffffffffffffffffffffff160217905550610230806100726000396000f300606060405260043610610041576000357c0100000000000000000000000000000000000000000000000000000000900463ffffffff168063c0410f7b14610046575b600080fd5b341561005157600080fd5b6100a1600480803590602001908201803590602001908080601f016020809104026020016040519081016040528093929190818152602001838380828437820191505050505050919050506100e3565b604051808273ffffffffffffffffffffffffffffffffffffffff1673ffffffffffffffffffffffffffffffffffffffff16815260200191505060405180910390f35b60008060009054906101000a900473ffffffffffffffffffffffffffffffffffffffff1673ffffffffffffffffffffffffffffffffffffffff1663bf40fac1836000604051602001526040518263ffffffff167c01000000000000000000000000000000000000000000000000000000000281526004018080602001828103825283818151815260200191508051906020019080838360005b8381101561019757808201518184015260208101905061017c565b50505050905090810190601f1680156101c45780820380516001836020036101000a031916815260200191505b5092505050602060405180830381600087803b15156101e257600080fd5b6102c65a03f115156101f357600080fd5b5050506040518051905090509190505600a165627a7a72305820c568282a09c651b4687fe6ff2ea396ce2f8a9fc3f061961c1bec9ddbf0bc60680029",
  "source": "pragma solidity ^0.4.18;\n\nimport \"../registries/ContractRegistry.sol\";\n\ncontract Proxy {\n  \n  address private constant CONTRACT_REGISTRY_ADDRESS = 0x1d3B2638a7cC9f2CB3D298A3DA7a90B67E5506ed;\n  \n  ContractRegistry internal contractRegistry;\n  \n  function Proxy() public {\n    contractRegistry = ContractRegistry(CONTRACT_REGISTRY_ADDRESS);\n  }\n  \n  function lookupAddress(string contractKey) public view returns (address) {\n    return contractRegistry.getAddress(contractKey);\n  }\n  \n}",
  "sourcePath": "/Users/luffy/Development/Workspace/ping-contracts/contracts/extensions/Proxy.sol",
  "compiler": {
    "name": "solc",
    "version": "0.4.18+commit.9cf6e910.Emscripten.clang"
  },
  "schemaVersion": "1.0.1",
  "updatedAt": "2017-12-22T07:10:56.973Z"
}